{
  "contractName": "MedicalRecord",
  "abi": [
    {
      "anonymous": false,
      "inputs": [
        {
          "indexed": false,
          "internalType": "string",
          "name": "patientId",
          "type": "string"
        },
        {
          "indexed": false,
          "internalType": "string",
          "name": "ipfsHash",
          "type": "string"
        },
        {
          "indexed": false,
          "internalType": "address",
          "name": "doctor",
          "type": "address"
        },
        {
          "indexed": false,
          "internalType": "uint256",
          "name": "timestamp",
          "type": "uint256"
        }
      ],
      "name": "RecordAdded",
      "type": "event"
    },
    {
      "inputs": [
        {
          "internalType": "string",
          "name": "_patientId",
          "type": "string"
        },
        {
          "internalType": "string",
          "name": "_ipfsHash",
          "type": "string"
        }
      ],
      "name": "addRecord",
      "outputs": [],
      "stateMutability": "nonpayable",
      "type": "function"
    },
    {
      "inputs": [
        {
          "internalType": "string",
          "name": "_patientId",
          "type": "string"
        }
      ],
      "name": "getRecords",
      "outputs": [
        {
          "components": [
            {
              "internalType": "string",
              "name": "ipfsHash",
              "type": "string"
            },
            {
              "internalType": "string",
              "name": "patientId",
              "type": "string"
            },
            {
              "internalType": "address",
              "name": "doctor",
              "type": "address"
            },
            {
              "internalType": "uint256",
              "name": "timestamp",
              "type": "uint256"
            }
          ],
          "internalType": "struct MedicalRecord.Record[]",
          "name": "",
          "type": "tuple[]"
        }
      ],
      "stateMutability": "view",
      "type": "function",
      "constant": true
    }
  ],
  "bytecode": "0x608060405234801561001057600080fd5b50610c30806100206000396000f3fe608060405234801561001057600080fd5b50600436106100365760003560e01c806386e80b711461003b578063c95962481461006b575b600080fd5b61005560048036038101906100509190610526565b610087565b6040516100629190610774565b60405180910390f35b61008560048036038101906100809190610796565b610288565b005b6060600082604051610099919061084a565b9081526020016040518091039020805480602002602001604051908101604052809291908181526020016000905b8282101561027d57838290600052602060002090600402016040518060800160405290816000820180546100fa90610890565b80601f016020809104026020016040519081016040528092919081815260200182805461012690610890565b80156101735780601f1061014857610100808354040283529160200191610173565b820191906000526020600020905b81548152906001019060200180831161015657829003601f168201915b5050505050815260200160018201805461018c90610890565b80601f01602080910402602001604051908101604052809291908181526020018280546101b890610890565b80156102055780601f106101da57610100808354040283529160200191610205565b820191906000526020600020905b8154815290600101906020018083116101e857829003601f168201915b505050505081526020016002820160009054906101000a900473ffffffffffffffffffffffffffffffffffffffff1673ffffffffffffffffffffffffffffffffffffffff1673ffffffffffffffffffffffffffffffffffffffff168152602001600382015481525050815260200190600101906100c7565b505050509050919050565b600060405180608001604052808381526020018481526020013373ffffffffffffffffffffffffffffffffffffffff1681526020014281525090506000836040516102d3919061084a565b908152602001604051809103902081908060018154018082558091505060019003906000526020600020906004020160009091909190915060008201518160000190816103209190610a6d565b5060208201518160010190816103369190610a6d565b5060408201518160020160006101000a81548173ffffffffffffffffffffffffffffffffffffffff021916908373ffffffffffffffffffffffffffffffffffffffff1602179055506060820151816003015550507f32110268e487b2e41c981433c981da63fda90863da2b82cd571de72f3bce522e838333426040516103bf9493929190610ba7565b60405180910390a1505050565b6000604051905090565b600080fd5b600080fd5b600080fd5b600080fd5b6000601f19601f8301169050919050565b7f4e487b7100000000000000000000000000000000000000000000000000000000600052604160045260246000fd5b610433826103ea565b810181811067ffffffffffffffff82111715610452576104516103fb565b5b80604052505050565b60006104656103cc565b9050610471828261042a565b919050565b600067ffffffffffffffff821115610491576104906103fb565b5b61049a826103ea565b9050602081019050919050565b82818337600083830152505050565b60006104c96104c484610476565b61045b565b9050828152602081018484840111156104e5576104e46103e5565b5b6104f08482856104a7565b509392505050565b600082601f83011261050d5761050c6103e0565b5b813561051d8482602086016104b6565b91505092915050565b60006020828403121561053c5761053b6103d6565b5b600082013567ffffffffffffffff81111561055a576105596103db565b5b610566848285016104f8565b91505092915050565b600081519050919050565b600082825260208201905092915050565b6000819050602082019050919050565b600081519050919050565b600082825260208201905092915050565b60005b838110156105d55780820151818401526020810190506105ba565b60008484015250505050565b60006105ec8261059b565b6105f681856105a6565b93506106068185602086016105b7565b61060f816103ea565b840191505092915050565b600073ffffffffffffffffffffffffffffffffffffffff82169050919050565b60006106458261061a565b9050919050565b6106558161063a565b82525050565b6000819050919050565b61066e8161065b565b82525050565b6000608083016000830151848203600086015261069182826105e1565b915050602083015184820360208601526106ab82826105e1565b91505060408301516106c0604086018261064c565b5060608301516106d36060860182610665565b508091505092915050565b60006106ea8383610674565b905092915050565b6000602082019050919050565b600061070a8261056f565b610714818561057a565b9350836020820285016107268561058b565b8060005b85811015610762578484038952815161074385826106de565b945061074e836106f2565b925060208a0199505060018101905061072a565b50829750879550505050505092915050565b6000602082019050818103600083015261078e81846106ff565b905092915050565b600080604083850312156107ad576107ac6103d6565b5b600083013567ffffffffffffffff8111156107cb576107ca6103db565b5b6107d7858286016104f8565b925050602083013567ffffffffffffffff8111156107f8576107f76103db565b5b610804858286016104f8565b9150509250929050565b600081905092915050565b60006108248261059b565b61082e818561080e565b935061083e8185602086016105b7565b80840191505092915050565b60006108568284610819565b915081905092915050565b7f4e487b7100000000000000000000000000000000000000000000000000000000600052602260045260246000fd5b600060028204905060018216806108a857607f821691505b6020821081036108bb576108ba610861565b5b50919050565b60008190508160005260206000209050919050565b60006020601f8301049050919050565b600082821b905092915050565b6000600883026109237fffffffffffffffffffffffffffffffffffffffffffffffffffffffffffffffff826108e6565b61092d86836108e6565b95508019841693508086168417925050509392505050565b6000819050919050565b600061096a6109656109608461065b565b610945565b61065b565b9050919050565b6000819050919050565b6109848361094f565b61099861099082610971565b8484546108f3565b825550505050565b600090565b6109ad6109a0565b6109b881848461097b565b505050565b5b818110156109dc576109d16000826109a5565b6001810190506109be565b5050565b601f821115610a21576109f2816108c1565b6109fb846108d6565b81016020851015610a0a578190505b610a1e610a16856108d6565b8301826109bd565b50505b505050565b600082821c905092915050565b6000610a4460001984600802610a26565b1980831691505092915050565b6000610a5d8383610a33565b9150826002028217905092915050565b610a768261059b565b67ffffffffffffffff811115610a8f57610a8e6103fb565b5b610a998254610890565b610aa48282856109e0565b600060209050601f831160018114610ad75760008415610ac5578287015190505b610acf8582610a51565b865550610b37565b601f198416610ae5866108c1565b60005b82811015610b0d57848901518255600182019150602085019450602081019050610ae8565b86831015610b2a5784890151610b26601f891682610a33565b8355505b6001600288020188555050505b505050505050565b600082825260208201905092915050565b6000610b5b8261059b565b610b658185610b3f565b9350610b758185602086016105b7565b610b7e816103ea565b840191505092915050565b610b928161063a565b82525050565b610ba18161065b565b82525050565b60006080820190508181036000830152610bc18187610b50565b90508181036020830152610bd58186610b50565b9050610be46040830185610b89565b610bf16060830184610b98565b9594505050505056fea26469706673582212203166da5274c3711c36320a49a164bba27ec6a00b95989475b6519cbca2035eba64736f6c63430008130033",
  "immutableReferences": {},
  "source": "// SPDX-License-Identifier: MIT\npragma solidity ^0.8.19;\n\ncontract MedicalRecord {\n    struct Record {\n        string ipfsHash;\n        string patientId;\n        address doctor;\n        uint256 timestamp;\n    }\n\n    // Mapping from patient ID to their records\n    mapping(string => Record[]) private patientRecords;\n    \n    // Event emitted when a new record is added\n    event RecordAdded(\n        string patientId,\n        string ipfsHash,\n        address doctor,\n        uint256 timestamp\n    );\n\n    // Add a new medical record\n    function addRecord(string memory _patientId, string memory _ipfsHash) public {\n        Record memory newRecord = Record({\n            ipfsHash: _ipfsHash,\n            patientId: _patientId,\n            doctor: msg.sender,\n            timestamp: block.timestamp\n        });\n        \n        patientRecords[_patientId].push(newRecord);\n        \n        emit RecordAdded(_patientId, _ipfsHash, msg.sender, block.timestamp);\n    }\n\n    // Get all records for a patient\n    function getRecords(string memory _patientId) public view returns (Record[] memory) {\n        return patientRecords[_patientId];\n    }\n}",
  "sourcePath": "/Users/ian/Documents/finale001112343/contracts/MedicalRecord.sol",
  "compiler": {
    "name": "solc",
    "version": "0.8.19+commit.7dd6d404.Emscripten.clang"
  },
  "schemaVersion": "3.4.16",
  "updatedAt": "2025-03-31T03:47:34.042Z",
  "networkType": "ethereum",
  "devdoc": {
    "kind": "dev",
    "methods": {},
    "version": 1
  },
  "userdoc": {
    "kind": "user",
    "methods": {},
    "version": 1
  }
}