{
  "contractName": "RecordAccess",
  "abi": [
    {
      "anonymous": false,
      "inputs": [
        {
          "indexed": false,
          "internalType": "string",
          "name": "patientId",
          "type": "string"
        },
        {
          "indexed": false,
          "internalType": "address",
          "name": "doctor",
          "type": "address"
        },
        {
          "indexed": false,
          "internalType": "uint256",
          "name": "timestamp",
          "type": "uint256"
        }
      ],
      "name": "AccessGranted",
      "type": "event"
    },
    {
      "anonymous": false,
      "inputs": [
        {
          "indexed": false,
          "internalType": "string",
          "name": "patientId",
          "type": "string"
        },
        {
          "indexed": false,
          "internalType": "address",
          "name": "doctor",
          "type": "address"
        },
        {
          "indexed": false,
          "internalType": "uint256",
          "name": "timestamp",
          "type": "uint256"
        }
      ],
      "name": "AccessRequested",
      "type": "event"
    },
    {
      "anonymous": false,
      "inputs": [
        {
          "indexed": false,
          "internalType": "string",
          "name": "patientId",
          "type": "string"
        },
        {
          "indexed": false,
          "internalType": "address",
          "name": "doctor",
          "type": "address"
        },
        {
          "indexed": false,
          "internalType": "uint256",
          "name": "timestamp",
          "type": "uint256"
        }
      ],
      "name": "AccessRevoked",
      "type": "event"
    },
    {
      "inputs": [
        {
          "internalType": "string",
          "name": "_patientId",
          "type": "string"
        }
      ],
      "name": "requestAccess",
      "outputs": [],
      "stateMutability": "nonpayable",
      "type": "function"
    },
    {
      "inputs": [
        {
          "internalType": "string",
          "name": "_patientId",
          "type": "string"
        },
        {
          "internalType": "address",
          "name": "_doctor",
          "type": "address"
        }
      ],
      "name": "approveAccess",
      "outputs": [],
      "stateMutability": "nonpayable",
      "type": "function"
    },
    {
      "inputs": [
        {
          "internalType": "string",
          "name": "_patientId",
          "type": "string"
        },
        {
          "internalType": "address",
          "name": "_doctor",
          "type": "address"
        }
      ],
      "name": "revokeAccess",
      "outputs": [],
      "stateMutability": "nonpayable",
      "type": "function"
    },
    {
      "inputs": [
        {
          "internalType": "string",
          "name": "_patientId",
          "type": "string"
        },
        {
          "internalType": "address",
          "name": "_doctor",
          "type": "address"
        }
      ],
      "name": "hasAccess",
      "outputs": [
        {
          "internalType": "bool",
          "name": "",
          "type": "bool"
        }
      ],
      "stateMutability": "view",
      "type": "function",
      "constant": true
    },
    {
      "inputs": [
        {
          "internalType": "string",
          "name": "_patientId",
          "type": "string"
        }
      ],
      "name": "getAccessRequests",
      "outputs": [
        {
          "components": [
            {
              "internalType": "string",
              "name": "patientId",
              "type": "string"
            },
            {
              "internalType": "address",
              "name": "doctor",
              "type": "address"
            },
            {
              "internalType": "uint256",
              "name": "timestamp",
              "type": "uint256"
            },
            {
              "internalType": "bool",
              "name": "approved",
              "type": "bool"
            }
          ],
          "internalType": "struct RecordAccess.AccessRequest[]",
          "name": "",
          "type": "tuple[]"
        }
      ],
      "stateMutability": "view",
      "type": "function",
      "constant": true
    }
  ],
  "bytecode": "0x608060405234801561001057600080fd5b50611413806100206000396000f3fe608060405234801561001057600080fd5b50600436106100575760003560e01c8063019971aa1461005c57806310ee1b221461007857806313bd20e214610094578063db117f0e146100c4578063dfe0b5fe146100f4575b600080fd5b61007660048036038101906100719190610b44565b610110565b005b610092600480360381019061008d9190610ba0565b61043d565b005b6100ae60048036038101906100a99190610b44565b610634565b6040516100bb9190610c04565b60405180910390f35b6100de60048036038101906100d99190610ba0565b6106a7565b6040516100eb9190610dfa565b60405180910390f35b61010e60048036038101906101099190610b44565b610831565b005b6001826040516101209190610e58565b908152602001604051809103902060008273ffffffffffffffffffffffffffffffffffffffff1673ffffffffffffffffffffffffffffffffffffffff16815260200190815260200160002060009054906101000a900460ff16156101b9576040517f08c379a00000000000000000000000000000000000000000000000000000000081526004016101b090610ecc565b60405180910390fd5b6000805b6000846040516101cd9190610e58565b908152602001604051809103902080549050811015610349578273ffffffffffffffffffffffffffffffffffffffff1660008560405161020d9190610e58565b9081526020016040518091039020828154811061022d5761022c610eec565b5b906000526020600020906004020160010160009054906101000a900473ffffffffffffffffffffffffffffffffffffffff1673ffffffffffffffffffffffffffffffffffffffff161480156102ce575060008460405161028d9190610e58565b908152602001604051809103902081815481106102ad576102ac610eec565b5b906000526020600020906004020160030160009054906101000a900460ff16155b156103365760016000856040516102e59190610e58565b9081526020016040518091039020828154811061030557610304610eec565b5b906000526020600020906004020160030160006101000a81548160ff02191690831515021790555060019150610349565b808061034190610f4a565b9150506101bd565b508061038a576040517f08c379a000000000000000000000000000000000000000000000000000000000815260040161038190610fde565b60405180910390fd5b6001808460405161039b9190610e58565b908152602001604051809103902060008473ffffffffffffffffffffffffffffffffffffffff1673ffffffffffffffffffffffffffffffffffffffff16815260200190815260200160002060006101000a81548160ff0219169083151502179055507fcd5010f0cf521705dc993ca35e5b2fd59371fb9516f4c5dab9cd77693bbf92b083834260405161043093929190611055565b60405180910390a1505050565b60018160405161044d9190610e58565b908152602001604051809103902060003373ffffffffffffffffffffffffffffffffffffffff1673ffffffffffffffffffffffffffffffffffffffff16815260200190815260200160002060009054906101000a900460ff16156104e6576040517f08c379a00000000000000000000000000000000000000000000000000000000081526004016104dd90610ecc565b60405180910390fd5b600060405180608001604052808381526020013373ffffffffffffffffffffffffffffffffffffffff1681526020014281526020016000151581525090506000826040516105349190610e58565b90815260200160405180910390208190806001815401808255809150506001900390600052602060002090600402016000909190919091506000820151816000019081610581919061129f565b5060208201518160010160006101000a81548173ffffffffffffffffffffffffffffffffffffffff021916908373ffffffffffffffffffffffffffffffffffffffff1602179055506040820151816002015560608201518160030160006101000a81548160ff02191690831515021790555050507f049be16051612b02110715a3302374f97570623d59144463390959db9054939b82334260405161062893929190611055565b60405180910390a15050565b60006001836040516106469190610e58565b908152602001604051809103902060008373ffffffffffffffffffffffffffffffffffffffff1673ffffffffffffffffffffffffffffffffffffffff16815260200190815260200160002060009054906101000a900460ff16905092915050565b60606000826040516106b99190610e58565b9081526020016040518091039020805480602002602001604051908101604052809291908181526020016000905b82821015610826578382906000526020600020906004020160405180608001604052908160008201805461071a906110c2565b80601f0160208091040260200160405190810160405280929190818152602001828054610746906110c2565b80156107935780601f1061076857610100808354040283529160200191610793565b820191906000526020600020905b81548152906001019060200180831161077657829003601f168201915b505050505081526020016001820160009054906101000a900473ffffffffffffffffffffffffffffffffffffffff1673ffffffffffffffffffffffffffffffffffffffff1673ffffffffffffffffffffffffffffffffffffffff168152602001600282015481526020016003820160009054906101000a900460ff161515151581525050815260200190600101906106e7565b505050509050919050565b6001826040516108419190610e58565b908152602001604051809103902060008273ffffffffffffffffffffffffffffffffffffffff1673ffffffffffffffffffffffffffffffffffffffff16815260200190815260200160002060009054906101000a900460ff166108d9576040517f08c379a00000000000000000000000000000000000000000000000000000000081526004016108d0906113bd565b60405180910390fd5b60006001836040516108eb9190610e58565b908152602001604051809103902060008373ffffffffffffffffffffffffffffffffffffffff1673ffffffffffffffffffffffffffffffffffffffff16815260200190815260200160002060006101000a81548160ff0219169083151502179055507ff7eb47ecbc62e098414c8565b83461841e3ae69f64ad0da8609abefecaec86ad82824260405161098093929190611055565b60405180910390a15050565b6000604051905090565b600080fd5b600080fd5b600080fd5b600080fd5b6000601f19601f8301169050919050565b7f4e487b7100000000000000000000000000000000000000000000000000000000600052604160045260246000fd5b6109f3826109aa565b810181811067ffffffffffffffff82111715610a1257610a116109bb565b5b80604052505050565b6000610a2561098c565b9050610a3182826109ea565b919050565b600067ffffffffffffffff821115610a5157610a506109bb565b5b610a5a826109aa565b9050602081019050919050565b82818337600083830152505050565b6000610a89610a8484610a36565b610a1b565b905082815260208101848484011115610aa557610aa46109a5565b5b610ab0848285610a67565b509392505050565b600082601f830112610acd57610acc6109a0565b5b8135610add848260208601610a76565b91505092915050565b600073ffffffffffffffffffffffffffffffffffffffff82169050919050565b6000610b1182610ae6565b9050919050565b610b2181610b06565b8114610b2c57600080fd5b50565b600081359050610b3e81610b18565b92915050565b60008060408385031215610b5b57610b5a610996565b5b600083013567ffffffffffffffff811115610b7957610b7861099b565b5b610b8585828601610ab8565b9250506020610b9685828601610b2f565b9150509250929050565b600060208284031215610bb657610bb5610996565b5b600082013567ffffffffffffffff811115610bd457610bd361099b565b5b610be084828501610ab8565b91505092915050565b60008115159050919050565b610bfe81610be9565b82525050565b6000602082019050610c196000830184610bf5565b92915050565b600081519050919050565b600082825260208201905092915050565b6000819050602082019050919050565b600081519050919050565b600082825260208201905092915050565b60005b83811015610c85578082015181840152602081019050610c6a565b60008484015250505050565b6000610c9c82610c4b565b610ca68185610c56565b9350610cb6818560208601610c67565b610cbf816109aa565b840191505092915050565b610cd381610b06565b82525050565b6000819050919050565b610cec81610cd9565b82525050565b610cfb81610be9565b82525050565b60006080830160008301518482036000860152610d1e8282610c91565b9150506020830151610d336020860182610cca565b506040830151610d466040860182610ce3565b506060830151610d596060860182610cf2565b508091505092915050565b6000610d708383610d01565b905092915050565b6000602082019050919050565b6000610d9082610c1f565b610d9a8185610c2a565b935083602082028501610dac85610c3b565b8060005b85811015610de85784840389528151610dc98582610d64565b9450610dd483610d78565b925060208a01995050600181019050610db0565b50829750879550505050505092915050565b60006020820190508181036000830152610e148184610d85565b905092915050565b600081905092915050565b6000610e3282610c4b565b610e3c8185610e1c565b9350610e4c818560208601610c67565b80840191505092915050565b6000610e648284610e27565b915081905092915050565b600082825260208201905092915050565b7f41636365737320616c7265616479206772616e74656400000000000000000000600082015250565b6000610eb6601683610e6f565b9150610ec182610e80565b602082019050919050565b60006020820190508181036000830152610ee581610ea9565b9050919050565b7f4e487b7100000000000000000000000000000000000000000000000000000000600052603260045260246000fd5b7f4e487b7100000000000000000000000000000000000000000000000000000000600052601160045260246000fd5b6000610f5582610cd9565b91507fffffffffffffffffffffffffffffffffffffffffffffffffffffffffffffffff8203610f8757610f86610f1b565b5b600182019050919050565b7f4e6f2070656e64696e67207265717565737420666f756e640000000000000000600082015250565b6000610fc8601883610e6f565b9150610fd382610f92565b602082019050919050565b60006020820190508181036000830152610ff781610fbb565b9050919050565b600061100982610c4b565b6110138185610e6f565b9350611023818560208601610c67565b61102c816109aa565b840191505092915050565b61104081610b06565b82525050565b61104f81610cd9565b82525050565b6000606082019050818103600083015261106f8186610ffe565b905061107e6020830185611037565b61108b6040830184611046565b949350505050565b7f4e487b7100000000000000000000000000000000000000000000000000000000600052602260045260246000fd5b600060028204905060018216806110da57607f821691505b6020821081036110ed576110ec611093565b5b50919050565b60008190508160005260206000209050919050565b60006020601f8301049050919050565b600082821b905092915050565b6000600883026111557fffffffffffffffffffffffffffffffffffffffffffffffffffffffffffffffff82611118565b61115f8683611118565b95508019841693508086168417925050509392505050565b6000819050919050565b600061119c61119761119284610cd9565b611177565b610cd9565b9050919050565b6000819050919050565b6111b683611181565b6111ca6111c2826111a3565b848454611125565b825550505050565b600090565b6111df6111d2565b6111ea8184846111ad565b505050565b5b8181101561120e576112036000826111d7565b6001810190506111f0565b5050565b601f82111561125357611224816110f3565b61122d84611108565b8101602085101561123c578190505b61125061124885611108565b8301826111ef565b50505b505050565b600082821c905092915050565b600061127660001984600802611258565b1980831691505092915050565b600061128f8383611265565b9150826002028217905092915050565b6112a882610c4b565b67ffffffffffffffff8111156112c1576112c06109bb565b5b6112cb82546110c2565b6112d6828285611212565b600060209050601f83116001811461130957600084156112f7578287015190505b6113018582611283565b865550611369565b601f198416611317866110f3565b60005b8281101561133f5784890151825560018201915060208501945060208101905061131a565b8683101561135c5784890151611358601f891682611265565b8355505b6001600288020188555050505b505050505050565b7f416363657373206e6f74206772616e7465640000000000000000000000000000600082015250565b60006113a7601283610e6f565b91506113b282611371565b602082019050919050565b600060208201905081810360008301526113d68161139a565b905091905056fea2646970667358221220ae6440ee52c216cc991c9aa44b1490fcb253e7a747e9ea7639b9de52c110e90064736f6c63430008130033",
  "immutableReferences": {},
  "source": "// SPDX-License-Identifier: MIT\npragma solidity ^0.8.19;\n\ncontract RecordAccess {\n    struct AccessRequest {\n        string patientId;\n        address doctor;\n        uint256 timestamp;\n        bool approved;\n    }\n\n    // Mapping from patient ID to their access requests\n    mapping(string => AccessRequest[]) private accessRequests;\n    \n    // Mapping to track approved access\n    mapping(string => mapping(address => bool)) private approvedAccess;\n    \n    // Events\n    event AccessRequested(\n        string patientId,\n        address doctor,\n        uint256 timestamp\n    );\n    \n    event AccessGranted(\n        string patientId,\n        address doctor,\n        uint256 timestamp\n    );\n    \n    event AccessRevoked(\n        string patientId,\n        address doctor,\n        uint256 timestamp\n    );\n\n    // Request access to patient records\n    function requestAccess(string memory _patientId) public {\n        require(!approvedAccess[_patientId][msg.sender], \"Access already granted\");\n        \n        AccessRequest memory newRequest = AccessRequest({\n            patientId: _patientId,\n            doctor: msg.sender,\n            timestamp: block.timestamp,\n            approved: false\n        });\n        \n        accessRequests[_patientId].push(newRequest);\n        emit AccessRequested(_patientId, msg.sender, block.timestamp);\n    }\n\n    // Approve access to patient records\n    function approveAccess(string memory _patientId, address _doctor) public {\n        require(!approvedAccess[_patientId][_doctor], \"Access already granted\");\n        \n        // Find the request\n        bool found = false;\n        for (uint i = 0; i < accessRequests[_patientId].length; i++) {\n            if (accessRequests[_patientId][i].doctor == _doctor && !accessRequests[_patientId][i].approved) {\n                accessRequests[_patientId][i].approved = true;\n                found = true;\n                break;\n            }\n        }\n        \n        require(found, \"No pending request found\");\n        \n        approvedAccess[_patientId][_doctor] = true;\n        emit AccessGranted(_patientId, _doctor, block.timestamp);\n    }\n\n    // Revoke access to patient records\n    function revokeAccess(string memory _patientId, address _doctor) public {\n        require(approvedAccess[_patientId][_doctor], \"Access not granted\");\n        \n        approvedAccess[_patientId][_doctor] = false;\n        emit AccessRevoked(_patientId, _doctor, block.timestamp);\n    }\n\n    // Check if a doctor has access to a patient's records\n    function hasAccess(string memory _patientId, address _doctor) public view returns (bool) {\n        return approvedAccess[_patientId][_doctor];\n    }\n\n    // Get all access requests for a patient\n    function getAccessRequests(string memory _patientId) public view returns (AccessRequest[] memory) {\n        return accessRequests[_patientId];\n    }\n} ",
  "sourcePath": "/Users/ian/Documents/finale001112343/contracts/RecordAccess.sol",
  "compiler": {
    "name": "solc",
    "version": "0.8.19+commit.7dd6d404.Emscripten.clang"
  },
  "schemaVersion": "3.4.16",
  "updatedAt": "2025-04-01T04:59:06.730Z",
  "networkType": "ethereum",
  "devdoc": {
    "kind": "dev",
    "methods": {},
    "version": 1
  },
  "userdoc": {
    "kind": "user",
    "methods": {},
    "version": 1
  }
}